{
  "_format": "hh-sol-artifact-1",
  "contractName": "ShareSmile",
  "sourceName": "contracts/ShareSmile.sol",
  "abi": [
    {
      "inputs": [],
      "stateMutability": "payable",
      "type": "constructor"
    },
    {
      "anonymous": false,
      "inputs": [
        {
          "indexed": false,
          "internalType": "address",
          "name": "sender",
          "type": "address"
        },
        {
          "indexed": false,
          "internalType": "uint256",
          "name": "timestamp",
          "type": "uint256"
        },
        {
          "indexed": false,
          "internalType": "string",
          "name": "_name",
          "type": "string"
        },
        {
          "indexed": false,
          "internalType": "string",
          "name": "_message",
          "type": "string"
        }
      ],
      "name": "NewSmile",
      "type": "event"
    },
    {
      "inputs": [
        {
          "internalType": "string",
          "name": "_name",
          "type": "string"
        },
        {
          "internalType": "string",
          "name": "_message",
          "type": "string"
        }
      ],
      "name": "addSmile",
      "outputs": [],
      "stateMutability": "nonpayable",
      "type": "function"
    },
    {
      "inputs": [],
      "name": "getSmiles",
      "outputs": [
        {
          "components": [
            {
              "internalType": "address",
              "name": "sender",
              "type": "address"
            },
            {
              "internalType": "uint256",
              "name": "timestamp",
              "type": "uint256"
            },
            {
              "internalType": "string",
              "name": "name",
              "type": "string"
            },
            {
              "internalType": "string",
              "name": "message",
              "type": "string"
            }
          ],
          "internalType": "struct ShareSmile.Smile[]",
          "name": "",
          "type": "tuple[]"
        }
      ],
      "stateMutability": "view",
      "type": "function"
    },
    {
      "inputs": [],
      "name": "getTotalSmiles",
      "outputs": [
        {
          "internalType": "uint256",
          "name": "",
          "type": "uint256"
        }
      ],
      "stateMutability": "view",
      "type": "function"
    }
  ],
  "bytecode": "0x608060405260008081905550610ca88061001a6000396000f3fe608060405234801561001057600080fd5b50600436106100415760003560e01c8063293b99bd146100465780633b568903146100625780636439815714610080575b600080fd5b610060600480360381019061005b91906105da565b61009e565b005b61006a6102e3565b604051610077919061091a565b60405180910390f35b6100886102ec565b60405161009591906108b8565b60405180910390f35b600160405180608001604052803373ffffffffffffffffffffffffffffffffffffffff16815260200142815260200184815260200183815250908060018154018082558091505060019003906000526020600020906004020160009091909190915060008201518160000160006101000a81548173ffffffffffffffffffffffffffffffffffffffff021916908373ffffffffffffffffffffffffffffffffffffffff16021790555060208201518160010155604082015181600201908051906020019061016d9291906104cf565b50606082015181600301908051906020019061018a9291906104cf565b505050600160008082825461019f91906109fc565b925050819055507f50dbd45f4a0fd163d0d05aee414e5bcc11372d398fbd6f7338e6b25759013eaa334284846040516101db9493929190610865565b60405180910390a16000655af3107a4000905047811115610231576040517f08c379a0000000000000000000000000000000000000000000000000000000008152600401610228906108da565b60405180910390fd5b60003373ffffffffffffffffffffffffffffffffffffffff168260405161025790610850565b60006040518083038185875af1925050503d8060008114610294576040519150601f19603f3d011682016040523d82523d6000602084013e610299565b606091505b50509050806102dd576040517f08c379a00000000000000000000000000000000000000000000000000000000081526004016102d4906108fa565b60405180910390fd5b50505050565b60008054905090565b60606001805480602002602001604051908101604052809291908181526020016000905b828210156104c657838290600052602060002090600402016040518060800160405290816000820160009054906101000a900473ffffffffffffffffffffffffffffffffffffffff1673ffffffffffffffffffffffffffffffffffffffff1673ffffffffffffffffffffffffffffffffffffffff168152602001600182015481526020016002820180546103a390610ad0565b80601f01602080910402602001604051908101604052809291908181526020018280546103cf90610ad0565b801561041c5780601f106103f15761010080835404028352916020019161041c565b820191906000526020600020905b8154815290600101906020018083116103ff57829003601f168201915b5050505050815260200160038201805461043590610ad0565b80601f016020809104026020016040519081016040528092919081815260200182805461046190610ad0565b80156104ae5780601f10610483576101008083540402835291602001916104ae565b820191906000526020600020905b81548152906001019060200180831161049157829003601f168201915b50505050508152505081526020019060010190610310565b50505050905090565b8280546104db90610ad0565b90600052602060002090601f0160209004810192826104fd5760008555610544565b82601f1061051657805160ff1916838001178555610544565b82800160010185558215610544579182015b82811115610543578251825591602001919060010190610528565b5b5090506105519190610555565b5090565b5b8082111561056e576000816000905550600101610556565b5090565b60006105856105808461095a565b610935565b90508281526020810184848401111561059d57600080fd5b6105a8848285610a8e565b509392505050565b600082601f8301126105c157600080fd5b81356105d1848260208601610572565b91505092915050565b600080604083850312156105ed57600080fd5b600083013567ffffffffffffffff81111561060757600080fd5b610613858286016105b0565b925050602083013567ffffffffffffffff81111561063057600080fd5b61063c858286016105b0565b9150509250929050565b600061065283836107c8565b905092915050565b61066381610a52565b82525050565b61067281610a52565b82525050565b60006106838261099b565b61068d81856109be565b93508360208202850161069f8561098b565b8060005b858110156106db57848403895281516106bc8582610646565b94506106c7836109b1565b925060208a019950506001810190506106a3565b50829750879550505050505092915050565b60006106f8826109a6565b61070281856109da565b9350610712818560208601610a9d565b61071b81610bc0565b840191505092915050565b6000610731826109a6565b61073b81856109eb565b935061074b818560208601610a9d565b61075481610bc0565b840191505092915050565b600061076c6034836109eb565b915061077782610bd1565b604082019050919050565b600061078f6027836109eb565b915061079a82610c20565b604082019050919050565b60006107b26000836109cf565b91506107bd82610c6f565b600082019050919050565b60006080830160008301516107e0600086018261065a565b5060208301516107f36020860182610832565b506040830151848203604086015261080b82826106ed565b9150506060830151848203606086015261082582826106ed565b9150508091505092915050565b61083b81610a84565b82525050565b61084a81610a84565b82525050565b600061085b826107a5565b9150819050919050565b600060808201905061087a6000830187610669565b6108876020830186610841565b81810360408301526108998185610726565b905081810360608301526108ad8184610726565b905095945050505050565b600060208201905081810360008301526108d28184610678565b905092915050565b600060208201905081810360008301526108f38161075f565b9050919050565b6000602082019050818103600083015261091381610782565b9050919050565b600060208201905061092f6000830184610841565b92915050565b600061093f610950565b905061094b8282610b02565b919050565b6000604051905090565b600067ffffffffffffffff82111561097557610974610b91565b5b61097e82610bc0565b9050602081019050919050565b6000819050602082019050919050565b600081519050919050565b600081519050919050565b6000602082019050919050565b600082825260208201905092915050565b600081905092915050565b600082825260208201905092915050565b600082825260208201905092915050565b6000610a0782610a84565b9150610a1283610a84565b9250827fffffffffffffffffffffffffffffffffffffffffffffffffffffffffffffffff03821115610a4757610a46610b33565b5b828201905092915050565b6000610a5d82610a64565b9050919050565b600073ffffffffffffffffffffffffffffffffffffffff82169050919050565b6000819050919050565b82818337600083830152505050565b60005b83811015610abb578082015181840152602081019050610aa0565b83811115610aca576000848401525b50505050565b60006002820490506001821680610ae857607f821691505b60208210811415610afc57610afb610b62565b5b50919050565b610b0b82610bc0565b810181811067ffffffffffffffff82111715610b2a57610b29610b91565b5b80604052505050565b7f4e487b7100000000000000000000000000000000000000000000000000000000600052601160045260246000fd5b7f4e487b7100000000000000000000000000000000000000000000000000000000600052602260045260246000fd5b7f4e487b7100000000000000000000000000000000000000000000000000000000600052604160045260246000fd5b6000601f19601f8301169050919050565b7f547279696e6720746f207769746864726177206d6f7265206d6f6e657920746860008201527f616e2074686520636f6e7472616374206861732e000000000000000000000000602082015250565b7f4661696c656420746f207769746864726177206d6f6e65792066726f6d20636f60008201527f6e74726163742e00000000000000000000000000000000000000000000000000602082015250565b5056fea2646970667358221220fe77a57db0ef0e7f2e7dcc64a14028724eacb8fa5a6afb4107ad1049077407f564736f6c63430008040033",
  "linkReferences": {},
  "deployedLinkReferences": {}
}