{
  "_format": "hh-sol-artifact-1",
  "contractName": "ShareSmile",
  "sourceName": "contracts/ShareSmile.sol",
  "abi": [
    {
      "inputs": [],
      "stateMutability": "nonpayable",
      "type": "constructor"
    },
    {
      "inputs": [
        {
          "internalType": "string",
          "name": "_name",
          "type": "string"
        },
        {
          "internalType": "string",
          "name": "_message",
          "type": "string"
        }
      ],
      "name": "addSmile",
      "outputs": [],
      "stateMutability": "nonpayable",
      "type": "function"
    },
    {
      "inputs": [],
      "name": "getSmiles",
      "outputs": [
        {
          "components": [
            {
              "internalType": "string",
              "name": "name",
              "type": "string"
            },
            {
              "internalType": "string",
              "name": "message",
              "type": "string"
            }
          ],
          "internalType": "struct ShareSmile.Smile[]",
          "name": "",
          "type": "tuple[]"
        }
      ],
      "stateMutability": "view",
      "type": "function"
    },
    {
      "inputs": [],
      "name": "getTotalSmiles",
      "outputs": [
        {
          "internalType": "uint256",
          "name": "",
          "type": "uint256"
        }
      ],
      "stateMutability": "view",
      "type": "function"
    }
  ],
  "bytecode": "0x608060405234801561001057600080fd5b5060008081905550610810806100276000396000f3fe608060405234801561001057600080fd5b50600436106100415760003560e01c8063293b99bd146100465780633b568903146100625780636439815714610080575b600080fd5b610060600480360381019061005b91906103ce565b61009e565b005b61006a610137565b6040516100779190610571565b60405180910390f35b610088610140565b604051610095919061054f565b60405180910390f35b6001604051806040016040528084815260200183815250908060018154018082558091505060019003906000526020600020906002020160009091909190915060008201518160000190805190602001906100fa9291906102c3565b5060208201518160010190805190602001906101179291906102c3565b505050600160008082825461012c9190610637565b925050819055505050565b60008054905090565b60606001805480602002602001604051908101604052809291908181526020016000905b828210156102ba5783829060005260206000209060020201604051806040016040529081600082018054610197906106d9565b80601f01602080910402602001604051908101604052809291908181526020018280546101c3906106d9565b80156102105780601f106101e557610100808354040283529160200191610210565b820191906000526020600020905b8154815290600101906020018083116101f357829003601f168201915b50505050508152602001600182018054610229906106d9565b80601f0160208091040260200160405190810160405280929190818152602001828054610255906106d9565b80156102a25780601f10610277576101008083540402835291602001916102a2565b820191906000526020600020905b81548152906001019060200180831161028557829003601f168201915b50505050508152505081526020019060010190610164565b50505050905090565b8280546102cf906106d9565b90600052602060002090601f0160209004810192826102f15760008555610338565b82601f1061030a57805160ff1916838001178555610338565b82800160010185558215610338579182015b8281111561033757825182559160200191906001019061031c565b5b5090506103459190610349565b5090565b5b8082111561036257600081600090555060010161034a565b5090565b6000610379610374846105b1565b61058c565b90508281526020810184848401111561039157600080fd5b61039c848285610697565b509392505050565b600082601f8301126103b557600080fd5b81356103c5848260208601610366565b91505092915050565b600080604083850312156103e157600080fd5b600083013567ffffffffffffffff8111156103fb57600080fd5b610407858286016103a4565b925050602083013567ffffffffffffffff81111561042457600080fd5b610430858286016103a4565b9150509250929050565b600061044683836104fc565b905092915050565b6000610459826105f2565b6104638185610615565b935083602082028501610475856105e2565b8060005b858110156104b15784840389528151610492858261043a565b945061049d83610608565b925060208a01995050600181019050610479565b50829750879550505050505092915050565b60006104ce826105fd565b6104d88185610626565b93506104e88185602086016106a6565b6104f1816107c9565b840191505092915050565b6000604083016000830151848203600086015261051982826104c3565b9150506020830151848203602086015261053382826104c3565b9150508091505092915050565b6105498161068d565b82525050565b60006020820190508181036000830152610569818461044e565b905092915050565b60006020820190506105866000830184610540565b92915050565b60006105966105a7565b90506105a2828261070b565b919050565b6000604051905090565b600067ffffffffffffffff8211156105cc576105cb61079a565b5b6105d5826107c9565b9050602081019050919050565b6000819050602082019050919050565b600081519050919050565b600081519050919050565b6000602082019050919050565b600082825260208201905092915050565b600082825260208201905092915050565b60006106428261068d565b915061064d8361068d565b9250827fffffffffffffffffffffffffffffffffffffffffffffffffffffffffffffffff038211156106825761068161073c565b5b828201905092915050565b6000819050919050565b82818337600083830152505050565b60005b838110156106c45780820151818401526020810190506106a9565b838111156106d3576000848401525b50505050565b600060028204905060018216806106f157607f821691505b602082108114156107055761070461076b565b5b50919050565b610714826107c9565b810181811067ffffffffffffffff821117156107335761073261079a565b5b80604052505050565b7f4e487b7100000000000000000000000000000000000000000000000000000000600052601160045260246000fd5b7f4e487b7100000000000000000000000000000000000000000000000000000000600052602260045260246000fd5b7f4e487b7100000000000000000000000000000000000000000000000000000000600052604160045260246000fd5b6000601f19601f830116905091905056fea264697066735822122048795a54baf76ef37ea37ef99c10ae26b70941324a32f9f7dc25c9b979c813d064736f6c63430008040033",
  "linkReferences": {},
  "deployedLinkReferences": {}
}